:020000040800F2
:1000000090090020BBA30008AFA30008B1A300081B
:10001000B7A30008B3A30008B5A30008B9A300085C
:10002000B9A30008B9A30008B9A30008B9A3000840
:10003000B9A30008B9A300088716000867200008C4
:1000400015630008196300081D6300082163000898
:1000500025630008296300082D6300083163000848
:1000600035630008396300083D63000841630008F8
:1000700045630008496300084D63000851630008A8
:1000800055630008596300085D6300086163000858
:1000900065630008696300086D6300087163000808
:1000A00075630008796300087D63000881630008B8
:1000B00085630008896300088D6300089163000868
:1000C00095630008996300089D630008A163000818
:1000D000A5630008A9630008AD630008B1630008C8
:0C00E000B5630008B9630008D96300088C
:1000EC00F8B504460D4600F003FFDFF8B01700200A
:1000FC000A4613685BB1D2F80432401C3BB1401C79
:10010C000A2802F58162F4DB00F0F6FE1EE000EB3B
:10011C00C01290000122425046184FF40072002188
:10012C00301D00F0EAFF00F0E7FEDFF8740700680E
:10013C0000EB0410361D806833460022294601F07E
:10014C009AF8070005D5304600F033FB4FF0FF302E
:10015C00F2BD06F10B00DFF84C170278437801EB87
:10016C00441101EB451102EB03228A8182780A7754
:10017C000379C27802EB03224A8342794A77C37926
:10018C00827902EB0322CA81437A027A02EB0322C0
:10019C000A82037BC27A02EB03224A82837D427D70
:1001AC0002EB0322C37D02EB0342037E02EB0362EC
:1001BC000A604A8A0ABB427E837E02EB0322C37E1C
:1001CC0002EB0342037F02EB03624A60427F807FB3
:1001DC0002EB0020888206F12C000278437802EBB7
:1001EC000322837802EB0342C37802EB03628A603A
:1001FC000279407902EB002003E0002048608882FD
:10020C008860C88206F5FF700278407802EB002007
:10021C000883304600F0CDFA3846F2BD2DE9F94F8F
:10022C0083B015460F980128A6BF0F98441C0024D4
:10023C004FF0000B8846C5F800B04FF0FF30049922
:10024C000860FF20039ADFF85C1601EB421101EB0A
:10025C004816318A01B93168728B129BDDF84090D7
:10026C00891A727F03FB1211F289139B5201B2FBA4
:10027C00F3F2891A327FB1FBF2F101911399491E05
:10028C00009103E04078084300B1641C01998C4252
:10029C000BDB0BF1010BBBF1020F80F291800F997C
:1002AC000129A8BF002403DA8AE0002800F0898025
:1002BC001198012804D104EBD47004EB600003E026
:1002CC0002280CBFA00060001399728B90FBF1F117
:1002DC008A182A60139A02FB11000E990860049880
:1002EC002A68006882421FD0DFF8B40503990068C1
:1002FC0000EB01174B46B868414600F0BCFF0028E4
:10030C000FD5129829680A18B8684B46414600F078
:10031C00B2FF002857D42A68B8684B46414600F013
:10032C00BBFF049928680860119801283BD10E98EE
:10033C0000990068884229D110F809A0DFF86005FF
:10034C000399006800EB01172868421CB8684B46FB
:10035C00414600F090FF002811D512982968081822
:10036C00421CB8684B46414600F085FF00282AD451
:10037C002868421CB8684B46414600F08DFF28683F
:10038C000499401C086099F8000003E0484490F878
:10039C0000A04078E1075ABF00F00F0040EA0A00C5
:1003AC0040EA1A1070E702280E9800684844017859
:1003BC007FF468AF427811438278C078114362E7CA
:1003CC0008B92046B7E1B4E12DE9F84F88460D99FC
:1003DC000A9F0C9C012991469A465CD10F990B9D62
:1003EC00491E8F4246D1E9074EBFFF21217841F0CB
:1003FC000F0121702346DFF8A814096801EB0016E1
:10040C0009F10102B068414600F046FF83460E98A0
:10041C0048440090421CB0682346414600F03CFF23
:10042C00BBF1000F58BF00280FD4B06823464A46D2
:10043C00414600F020FF002811D5009AB0682346F1
:10044C00414600F018FF002803D54FF0FF30BDE8FF
:10045C00F28FB06823464A46414600F01DFF38191A
:10046C00CAF80090E90746BF017841F0F001FF217E
:10047C0001701AE03819FF22E90705D5017842709E
:10048C0041F0F001017010E002703919407840F031
:10049C000F00487009E03819FF22022902704270DF
:1004AC0003D1827039190F20C8700020BDE8F28F7B
:1004BC002DE9FE4F834682B010980E9C012804D182
:1004CC0004EBD47004EB600004E0109802280CBF1D
:1004DC00A0006000DFF8CC23029B1299DDF83C8071
:1004EC0002EB4B1202EB431290FBF1F1528B8D1885
:1004FC00129A02FB1100009003980268954232D0C8
:10050C00DFF89C030068029900EB0B174346B868B0
:10051C0000F0C2FE06460398119900680A18029969
:10052C00B868434600F0B8FE002E58BF002800F112
:10053C0000810299B86843462A4600F09CFE0028C8
:10054C000FD5119802992A18B868434600F093FE0B
:10055C00002800F1EE800299B86843462A4600F064
:10056C009BFE0398056004A890F8009004980499E9
:10057C00049A109BC01101EB106000044FEA106A42
:10058C00C81301EB1040C91502EB1121091601F03B
:10059C000F0200140099012B414440F08980129AFB
:1005AC000098521E904256D1E00707D5087800F00B
:1005BC000F00087040EA0910087001E081F8009003
:1005CC00B7480068029900EB0B174346B8682A46F7
:1005DC0000F062FE06461198029928180190024616
:1005EC00B868434600F058FE002E58BF002800F1B2
:1005FC00A0806D1C0299B86843462A4600F03BFE69
:10060C00002800F1968003980560E00704D54FEAB6
:10061C00191040EA0A1008E098F8000000F0F00009
:10062C0088F800000AF00F01084388F800004346E0
:10063C000299B8682A4600F02FFE064601980299E6
:10064C00421CB868434600F027FE002E58BF002815
:10065C006FD400206FE0E0070BD5087800F00F0096
:10066C00087040EA091008704FEA191040EA0A10A5
:10067C000CE081F800900098009940444144407887
:10068C0000F0F00048700AF00F0108430099414453
:10069C00434648702A4682480068029900EB0B17C3
:1006AC00B86800F0F9FD0646119843462A181EE07A
:1006BC00119BEB180193109B81F80090022B1FD11A
:1006CC0000994144434681F801A000994144887047
:1006DC0000984044C2702A4671480068029900EBA9
:1006EC000B17B86800F0D8FD019A064643460299EC
:1006FC00B86800F0D1FD002E1BD40028A9D518E055
:10070C0000984044434680F801A02A46644800689B
:10071C00029900EB0B17B86800F0BEFD0646019A73
:10072C000299B868434600F0B7FD002E58BF002868
:10073C008FD54FF0FF3005B0BDE8F08F80B500F0DD
:10074C00D7FB5648052100220260C0F80422491E3E
:10075C0000F58160F8D1BDE8014000F0CDBB10B5CB
:10076C00044600F0C5FBB4F5007F1ED84B490020B1
:10077C000A4613687BB900EBC0129000012242506C
:10078C0044184FF400720021201D00F0B6FC00F05C
:10079C00B3FB201D10BDD2F80432401C002BEAD054
:1007AC00401C0A2802F58162E3DB00F0A5FB002067
:1007BC0010BD10B5044600F09BFB384900200A1D03
:1007CC00A24205D100EBC01398000022425004E075
:1007DC00401C0A2802F50172F2DBBDE8104000F063
:1007EC008BBBF8B504462E48006800EB04100D4690
:1007FC00806800F02BFD002822D4012805D1294661
:10080C002046FFF76DFC00281AD4264800EB441054
:10081C0000EB45164AF65527308BB84208D02946CE
:10082C002046FFF75DFC00280AD4308BB84207D174
:10083C00707F022804D1708A20B9307D000601D562
:10084C000020F2BD0120F2BD164A02EB401000EB75
:10085C004110C18982894901B1FBF2F1428A02B986
:10086C004268038A03B90368B0F81AC0A3EB0C03FF
:10087C0090F81DC0007F02FB1C32511AB1FBF0F046
:10088C0040F6F571884201D2012070474FF6F571A0
:10089C00884234BF002002207047000090110020D5
:1008AC0028A30008F04000202DE9FB4F86B0164627
:1008BC00FFF7CAFF0090012808BF40F6F57A05D073
:1008CC0002280CBFDFF890A14FF6F57A00F010FB70
:1008DC00624900200A4613685BB1D2F80432401C0E
:1008EC003BB1401C0A2802F58162F4DB00F004FBEA
:1008FC00CEE000EBC01290000122425045184FF49C
:10090C0000720021281D00F0F8FB00F0F5FA0699A2
:10091C00534800EB4110079900EB411002902D1D3C
:10092C00408A019010B90298406801900027029803
:10093C00808903904FF0FF300399491E059157456C
:10094C0080F0A380009904967F1C012904D106EB4A
:10095C00D67106EB610104E0009902290CBFB100CD
:10096C007100029B039A5B8B91FBF2F202EB030882
:10097C00039B804503FB121B1DD03A480699006867
:10098C0000EB01140799A0682B46424600F073FC5B
:10099C0000280FD50198079908EB0002A0682B4698
:1009AC0000F069FC002870D40799A0682B464246D9
:1009BC0000F072FC4046009A012A0BEB050134D181
:1009CC00059A91F80090934521D126480699006824
:1009DC0000EB011408F1010B0799A0682B465A464D
:1009EC0000F049FC00280FD5019807994044421C9F
:1009FC00A0682B4600F03FFC002846D40799A0685D
:100A0C002B465A4600F048FC2978584600E04978B5
:100A1C00F20747BF4FEA191202EB011601F00F0162
:100A2C0009EB012640F6F87124E0022A0BEB0502D3
:100A3C00097852781AD101EB02210BEB050292785E
:100A4C0001EB02410BEB0502D27801EB02610E01C6
:100A5C00360905490EE000BFF0FFFF0F9011002092
:100A6C00F040002028A30008F8FFFF0F01EB02263E
:100A7C004FF6F8718E42FFF662AF2846FFF799FEEB
:100A8C00089800B10760049804E02846FFF791FE2F
:100A9C004FF0FF3009B0BDE8F08F00002DE9F04FAA
:100AAC008BB08146002009908A46174600F020FA48
:100ABC006D4900200A4613685BB1D2F80432401C21
:100ACC003BB1401C0A2802F58162F4DB00F014FAF9
:100ADC00C7E000EBC01290000122425046184FF4C0
:100AEC0000720021301D00F008FB00F005FA5146A1
:100AFC004846FFF7A9FE83465C4800EB491000EB23
:100B0C004A18361DB8F812400CB9D8F80440B8F899
:100B1C000C00079005900494CDF80CB00296019748
:100B2C0009A8009006AB08AA51464846FFF776FB89
:100B3C000546002D00F19280079805900494CDF89D
:100B4C000CB00296019506AB0998089A0090514694
:100B5C004846FFF739FC002800F18080002F17D59C
:100B6C0043480068069A00EB09173346B8685146AB
:100B7C0000F092FB0090334606980219B868514673
:100B8C0000F08AFB0099002968D400280FD565E095
:100B9C00079804900394CDF808B0019600972B4663
:100BAC0006AA51464846FFF783FC002856D4BBF1F1
:100BBC00020F5FD12E480068B8F8162000EB091719
:100BCC003346B868514600F056FB002846D43078BE
:100BDC00522802BF701C017852294BD141786129EF
:100BEC0004BF8078412845D106F5F270017872294E
:100BFC0004BF417872293DD18178412904BFC17865
:100C0C00612937D1017E002904BF417E002931D1F1
:100C1C00817E552904BFC17EAA292BD1FF210171E8
:100C2C0041718171C1710572E91105EB11610912F4
:100C3C0041723346E91305EB114109148172E91530
:100C4C0005EB1121091601F00F01C172B8F816203D
:100C5C00B868514600F020FB00280BD53046FFF752
:100C6C00A8FD4FF0FF3009E090110020F04000206B
:100C7C0028A300083046FFF79CFD28460BB0BDE8C2
:100C8C00F08F00002DE9F14F86B08A4616469B4640
:100C9C00FFF7DAFD029000F02BF9624900200A46BA
:100CAC0013685BB1D2F80432401C3BB1401C0A28DB
:100CBC0002F58162F4DB00F01FF9C6E000EBC01214
:100CCC0090000122425045184FF400720021281D5B
:100CDC0000F013FA00F010F90699534800EB41109C
:100CEC0000EB4A1001902D1D408A009010B901981C
:100CFC0040680090BBF1000F0198808903904FF081
:100D0C00FF3075D00399491E04910299012904D131
:100D1C0006EBD67106EB610103E002290CBFB100B2
:100D2C007100019B039A5B8B91FBF2F202EB0308BF
:100D3C00039B804503FB12171DD03C4806990068A5
:100D4C0000EB01142B46A0684246514600F093FA82
:100D5C0000280FD5009808EB0002A0682B465146DE
:100D6C0000F089FA00286DD4A0682B464246514603
:100D7C0000F092FA4046029A7919012A3DD1049A60
:100D8C0091F80090974221D128480699006808F103
:100D9C00010700EB01142B46A0683A46514600F0BF
:100DAC006AFA00280FD500984044421CA0682B46D4
:100DBC00514600F060FA002844D4A0682B463A460D
:100DCC00514600F069FA2978384600E04978F20774
:100DDC0047BF4FEA191202EB011601F00F0109EBA4
:100DEC00012640F6F8718E422CDABBF1010B8CD146
:100DFC002846FFF7DEFC304628E0022A097819D194
:100E0C007A19527801EB02217A19927801EB02419E
:100E1C007A19D27801EB02610E01360904498E422F
:100E2C00E3DB0FE090110020F040002028A3000825
:100E3C00F8FFFF0F7A19527801EB02264FF6F87182
:100E4C008E42D2DB2846FFF7B4FC002007B0BDE889
:100E5C00F08FF0B4016844688368091801EB540200
:100E6C00E40748BF4B440C3091422BD011F8014B96
:100E7C0014F0030504BF11F8015BED1C26090F2EBD
:100E8C0007D111F8016B0F3603E011F8017B03F861
:100E9C00017B6D1EF9D1002EE6D0A40811F8015B80
:100EAC0004F00304032C08BF11F8014B05EB0424D8
:100EBC001C1BB51CD8D014F8016B03F8016B6D1E0C
:100ECC00F9D1D1E7F0BC704780B54548006806E021
:100EDC004348006800F0E9BA80B5414840686A466A
:100EEC00002100F07DFA01BD3D48406800F0DDBAFC
:100EFC0080B53B488068F2E73948806800F0D5BA85
:100F0C0080B53748C068EAE73548C06800F0CDBA0C
:100F1C0080B5684600F0F2FA684600F04BFB0269B7
:100F2C00C1684069521C01EB4211503889B280B241
:100F3C0001EB402080B202BD80B5684600F0DEFABD
:100F4C00684600F037FB0168426801EBD171520131
:100F5C0002EB6101806889B201EBC02080B202BD56
:100F6C0010B501201E4C00F0C3F92060012000F0E8
:100F7C00BFF96060012000F0BBF9A060012000F017
:100F8C00B7F9E060012000F0B3F92061012000F016
:100F9C00AFF96061002010BD10B5114C82B0206813
:100FAC006A46012100F0C4F960686A46012100F02C
:100FBC00BFF9A0686A46012100F0BAF9E0686A46F8
:100FCC00012100F0B5F920696A46012100F0B0F961
:100FDC0060696A46012100F0ABF9002016BD0000E3
:100FEC0030410020C9B202788A4204D010F8012B9B
:100FFC00002AF8D100207047014600E0491C0A780D
:10100C00002AFBD1081A704701E0491C521E6AB134
:10101C000B7890F800C09C4504D034BF4FF0FF30E3
:10102C000120704710F8013B002BEED100207047D7
:10103C0000E0491C0A780378934205D110F8012B83
:10104C00002AF6D10020704734BF4FF0FF3001204A
:10105C00704770B400210122034600E05B1C1C7831
:10106C00002CFBD11B1A012B28DB03782D2B03D171
:10107C00401C4FF0FF3202E02B2B08BF401C0346F4
:10108C0000E05B1C1C78002CFBD11B1A012B15DB20
:10109C000478302C03D1401C5B1E012BF8DA0024A1
:1010AC00054600E0641C9C42BCBF2E783A2E03DA45
:1010BC0015F8016B302EF5DA012C02DA70BC002029
:1010CC0070470123022C05DB651E03EB83067300BE
:1010DC006D1EFAD110F8015B3A2D0ADA302D08DBBF
:1010EC00303DEDB203FB05110A25641EB3FBF5F38D
:1010FC00F0D170BC01FB02F0704710B50446100033
:10110C0004D00A460146204600F062FA204610BD83
:10111C0003462AB111F801CB03F801CB521EF9D1C9
:10112C00704710B5044604E011F8013B00F8013B90
:10113C00521E2AB10B78002BF6D1114600F07CFA26
:10114C00204610BD0FF20401405C70470001020301
:10115C000405060708090A0B0C0D0E0F10111213CB
:10116C001415161718191A1B1C1D1E1F20212223BB
:10117C002425262728292A2B2C2D2E2F30313233AB
:10118C003435363738393A3B3C3D3E3F404142439B
:10119C004445464748494A4B4C4D4E4F505152538B
:1011AC005455565758595A5B5C5D5E5F60414243DB
:1011BC004445464748494A4B4C4D4E4F505152536B
:1011CC005455565758595A7B7C7D7E7F808182833B
:1011DC008485868788898A8B8C8D8E8F909192934B
:1011EC009495969798999A9B9C9D9E9FA0A1A2A33B
:1011FC00A4A5A6A7A8A9AAABACADAEAFB0B1B2B32B
:10120C00B4B5B6B7B8B9BABBBCBDBEBFC0C1C2C31A
:10121C00C4C5C6C7C8C9CACBCCCDCECFD0D1D2D30A
:10122C00D4D5D6D7D8D9DADBDCDDDEDFE0E1E2E3FA
:10123C00E4E5E6E7E8E9EAEBECEDEEEFF0F1F2F3EA
:10124C00F4F5F6F7F8F9FAFBFCFDFEFF70B5044671
:10125C000D46606860B12046FFF752FE6168284673
:10126C008847064629462046FFF74EFE304670BD9D
:10127C004FF0FF3070BDF8B504460D46A068164619
:10128C001F4640B12046FFF73BFEA3683A46314665
:10129C002846984713E00FE0F8B504460D46E06881
:1012AC0016461F4640B12046FFF72AFEE3683A4631
:1012BC0031462846984702E04FF0FF30F2BD064613
:1012CC0029462046FFF720FE3046F2BDF8B504460D
:1012DC000D46206916461F4648B12046FFF710FE02
:1012EC003146069B26693A462846B047E7E7E3E7CE
:1012FC0038B505466748007808B1002032BD00F0CB
:10130C009FF965490A6814001CBF52680A6000F016
:10131C009BF95CB1032020702581002060603F2088
:10132C00E07300202074204600F0C2FB204632BD42
:10133C002DE9F04104460E4620780328154602D0CC
:10134C000120287049E05348007810B10F20287014
:10135C0043E000F075F98046A07A471EBF41FF4379
:10136C00FF0F16B1012E1BD032E077B93F20E0738E
:10137C0000202074207048480168616000212181A0
:10138C000460404600F060F91EE0404600F05CF955
:10139C00492021E0002301220021204600F00CFB13
:1013AC00A07A0028F6D13F20E07300202074207032
:1013BC00394801686160002121810460404600F0D9
:1013CC0043F90FB100F07FFB00202870002404E0EB
:1013DC00404600F039F9072028702046BDE8F0811E
:1013EC002DE9F04105460E4628780328144618BF0F
:1013FC00012014D12748007808B102200FE02748BB
:10140C00007808B10D200AE000F01AF9804628890E
:10141C0030B1401E2881404600F016F9002041E012
:10142C001F4F386890F8301041F0010180F83010EF
:10143C000020396881F831003868C685284600F0EC
:10144C00EEFA404600F000F900F03DFB00F0F8F831
:10145C000646386890F8311011B1022902D003E029
:10146C00002005E00E2003E0294600F0FBFA0A20DC
:10147C0020700020396881F83000396881F831001B
:10148C0000213868C16101623046BDE8F04100F0CE
:10149C00DBB80000B8250020C8250020B9250020A5
:1014AC00D02500202070BDE8F08138B504462078A6
:1014BC00032801D0012032BD00F0C2F80546A07A05
:1014CC0058B1002301220021204600F075FA28466D
:1014DC0000F0BAF800F0F7FA09E020894FF6FF7136
:1014EC00884206D0401C2081284600F0ADF8002030
:1014FC0032BD284600F0A8F8322032BD00B50200FB
:10150C0000211120ABBE002A00D0106000BD026883
:10151C00531C036011707047F0B5244E83B03046F5
:10152C0000F012FC0446224D284600F00DFC006829
:10153C0008B900F00BFC284600F006FC0546301DEF
:10154C0000F002FC064628682168814228D0007809
:10155C0010B900F011FC28606A462868022100F0DE
:10156C0010FC074600230A2201A900F02BFC306076
:10157C000199009AC91B914205D100F2135040F613
:10158C002721884201D3002030606421306890FB11
:10159C00F1F101EB8102C0EBC200306028682060E1
:1015AC003068A0EB0011880003B0F0BD44010020AE
:1015BC004C01002010B50446FFF7AEFF2168BDE8D2
:1015CC00104041184FF0FF32002000F05CBC0100CD
:1015DC0062F30F2262F31F42401810F0030308D08D
:1015EC00C91A1FD3DB0748BF00F8012D28BF20F80C
:1015FC00022D130030B414461546103928BF20E9CB
:10160C003C00FAD8490728BF20E90C0048BF40F835
:10161C00042D890028BF20F8022D48BF00F8012DA9
:10162C0030BC7047C91818BF00F8012DCB0728BF74
:10163C0000F8012D70470A000022FFF7CDBF100003
:10164C00EFF3108072B6704780F3108870471B4818
:10165C00FF210170002080F30988194801210170D5
:10166C0018481949016062B6FEE716481649016030
:10167C007047144814490160704772B6EFF3098043
:10168C0028B1203880E8F00F10490968086000B5CF
:10169C000F4880475DF804EB0E480F490A7802703A
:1016AC000A480E490A680260106890E8F00F203072
:1016BC0080F309884EF0040E62B6704722ED00E00C
:1016CC00BD25002004ED00E000000010D025002016
:1016DC0061200008BA250020BB250020D825002059
:1016EC00F8B50546DFF8480500780E46144608B1F3
:1016FC00122021E02878401E032812D8FFF7A0FF03
:10170C0007463046002100E0491C10F8012B002A46
:10171C00FAD1C9B2102906DB3846FFF795FF0B202A
:10172C000AE0012008E0314605F10F0000F0F3F962
:10173C003846FFF789FF00202070F1BD70B586B0E8
:10174C0000F048FCDFF8E8440020A06220706070D4
:10175C00A0716071E06060612071002104F10800EB
:10176C00A1700160E1702162A16104F55B7540F22A
:10177C001C61284600F098FC8021DFF8B80400F0CA
:10178C0093FC294604F57272042001F14C034A6162
:10179C003F261E705C3100265E705C3201F14C03FA
:1017AC004A613F261E705C3100265E705C3201F18E
:1017BC004C034A613F261E705C3100265E705C3221
:1017CC0001F14C034A613F261E705C315C320026ED
:1017DC00401E5E70D9D1486101F14C003F2101706F
:1017EC0046706662E5614FF4A07104F12C0000F0C4
:1017FC005BFC04F12C0004F14C02032100F8046B97
:10180C0040F80B2B3F2300F8013B00F8106B203203
:10181C0000F8046B40F80B2B00F8013B00F8106B40
:10182C00203200F8046B40F80B2B00F8013B2032FF
:10183C00491E00F8106BE1D10170416006743F2124
:10184C00C17304F12C00206100F032FC00F06CFC40
:10185C0000F0A2FC032004900396802002901F232A
:10186C0004F5B670019004F55A724FF6FF700090B3
:10187C0000210FF2D12000F0A7FC05AA0FF2B8311D
:10188C001F2000F0F1FC00F0A6FB00F029FD06B0D3
:10189C0070BD38B5DFF89843607901282AD1FFF77D
:1018AC00CFFE0546207808B1401E20702078617864
:1018BC0008431AD121790FF29030095C0A19127A77
:1018CC00105C00EBC100E070A178E07888420CD08D
:1018DC00DFF8601351F820002062816B491C816392
:1018EC00E068401CE060FFF7C4FE2846BDE83240CB
:1018FC00FFF7AABE31BDDFF83803417999B90279F7
:10190C000FF24431525C13181B7A595C01EBC20183
:10191C00C170DFF82023C178817052F82110016268
:10192C008161FFF794BE704770B500F095FBFFF72F
:10193C0087FEDFF8FC42A16A491CA162FFF784FE16
:10194C006079012837D1E07938B1022801D032D33F
:10195C0001E0012000E00020E071666A12E0697786
:10196C00297F09070BD406F1340122798B781A43AD
:10197C0022710A7849781219137A194311722E6858
:10198C00FFF762FE06F11405A87F1F2813D0FFF79E
:10199C0057FE698B0029F2D0491E698389B2002950
:1019AC00EDD1297F372211421DBF01F0C8012977E3
:1019BC0001210021D3E770BDF8B504460FF288254C
:1019CC00A07A405D06194FF0000CF67A755D994EC1
:1019DC0005EBC005EDB256F8256006F11C07B960A1
:1019EC00A7F812C07B75397D91433975397D09078C
:1019FC0009D48F49BB7E0A791A4340180A71017ABF
:101A0C007A7E114301722146304600F02BF879683A
:101A1C0019B1304600F036F83C602846F2BD8449D6
:101A2C008A6942F81C0F137E527E1B1893F80BC068
:101A3C0042EA0C02DA728B69827A93F836301A43D6
:101A4C008272886910F8342F90F801C05218137AFA
:101A5C0033EA0C03137204D10A79807822EA00006D
:101A6C000871704710F8342F90F801C05218D37ACF
:101A7C0033EA0C03D37204D18A7A807822EA00000C
:101A8C008872704770B410F8342F837840780C68E3
:101A9C00DB4309E01519EE7A8643EE7202D1A57A82
:101AAC001D40A57251F8044F002CF3D170BC704747
:101ABC00002181720B300421FFF7BEBD002918BF35
:101ACC00FFF7BABD704710B5FFF7BAFD044658488A
:101ADC0001784278114319D102790FF26C11525CE2
:101AEC0013181B7A595C01EBC201C1708278C17862
:101AFC0091420BD04F4A52F8211001628A6B521C52
:101B0C008A63C168491CC160FFF7AFFD2046BDE880
:101B1C001040FFF799BD002204E011F8013B00F8DA
:101B2C00013B521C0B78002BF7D100210170D0B275
:101B3C007047002100E0491C10F8012B002AFAD153
:101B4C00C8B2704780B5FFF77BFD39494A69521C12
:101B5C004A61FFF779FD00F040FAF4E72DE9F8430C
:101B6C0004460F4691469846FFF76AFD304DEE69E4
:101B7C00002E56D07169E961FFF766FD37600020D1
:101B8C0006F13007BC7038707870F0850122099826
:101B9C00706004F007010898F060C6F808900A9885
:101BAC003082A6F812800020F871F970E0083871C4
:101BBC0002FA00F0B87102FA01F078710020F061BD
:101BCC003062B0627062B8603861F8607861B86198
:101BDC003F20387700207877304600F03CFA3046CA
:101BEC0000F0FAF9FFF72CFD124941F82460696AFC
:101BFC0071610021B161696A01B18E616E622979EE
:101C0C00BA791143297139797B7949190A7A1A43BE
:101C1C000A72A979491CA971FFF716FD0020BDE8CD
:101C2C00F283FFF711FD4220BDE8F28300000000B3
:101C3C00B8250020CC3C002075432F4F532D49492B
:101C4C002049646C650000000000010002000100E6
:101C5C000300010002000100040001000200010069
:101C6C000300010002000100050001000200010058
:101C7C000300010002000100040001000200010049
:101C8C000300010002000100060001000200010037
:101C9C000300010002000100040001000200010029
:101CAC000300010002000100050001000200010018
:101CBC000300010002000100040001000200010009
:101CCC0003000100020001000700010002000100F6
:101CDC0003000100020001000400010002000100E9
:101CEC0003000100020001000500010002000100D8
:101CFC0003000100020001000400010002000100C9
:101D0C0003000100020001000600010002000100B6
:101D1C0003000100020001000400010002000100A8
:101D2C000300010002000100050001000200010097
:101D3C000300010002000100040001000200010088
:101D4C0003000100020001007047010038B5084C87
:101D5C002046FFF7F9FF006848B92046FFF7F4FF6B
:101D6C000FF210050560201DFFF7EEFF056031BD79
:101D7C004C010020000020000FF20400704700000E
:101D8C003A00F8B504460D462078002816460CBFDC
:101D9C00002714F8017B01E06D1E441C39462046D7
:101DAC0000F0A0FA18B9204600F0A8FA0019012D8D
:101DBC0003DA001B30602046F2BD01780029EBD11C
:101DCC003160F2BD2DE9F04182B080460E001D4617
:101DDC0008BF6E46474600E07F1C3878A0F1090129
:101DEC000529F9D32028F7D02D2816BF2B2817F852
:101DFC00014B2B243146384600F09CFA31688F4257
:101E0C0008BFC6F800803168884514D120B92D2C44
:101E1C0016D1B0F1004F15D900F058FB222101600A
:101E2C000DB1012028602D2C14BF6FF000404FF035
:101E3C000040BDE8F6812B2CE9D1B0F1004FEBD27C
:101E4C00BDE8F6814042BDE8F6814001012804DB83
:101E5C00421E531002EB937205E010F1030F04DAEB
:101E6C00421000EB9272921000E0002210F0030F6F
:101E7C0000D110B90FF2441001E00FF2281030F924
:101E8C001100801870472DE9F84F0446424840185D
:101E9C00154600901CB94148FFF756FF04462562D1
:101EAC004FF461650098DFF8F8A00FF210160FF2EE
:101EBC00F4076FF0020840F26D1902E0009800F58B
:101ECC0061605146B0FBF1F14B1C4FF0070C93FBDA
:101EDC00FCFCCCEBCC0CA3EB0C03A3614B4691FBB1
:101EEC00F3F300E05B1E012B05DB5A1E4FEA620E7A
:101EFC0002EB9E7204E0434505DA5A1003EB927232
:101F0C004FEAA20C01E04FF0000C13F0030F02D1CA
:101F1C000BB1BE4600E0B646BEF90020944409FB66
:101F2C0003CC6145DEDBA1EB0C0213F0030F636104
:101F3C00E26100D10BB9334600E03B464FF00C0C8C
:101F4C0003F1180E3EF902BD5A45ACF1010CF9DB58
:101F5C00C4F810C00AFB110033F91C302946D21A00
:101F6C00B0FBF1F1521CA160E26005FB11003C21B9
:101F7C00B0FBF1F1C1EB01126160A0EB82002060BB
:101F8C00206A002805D5204600F0A6FA0128206218
:101F9C0094DA2046BDE8F28F807EAA83540100209B
:101FAC008051010000001F003C005B00790098008C
:101FBC00B600D500F400120131014F0100001F00E2
:101FCC003B005A0078009700B500D400F3001101D3
:101FDC0030014E0170477047704770474FF0807367
:101FEC0042F804391060101F6FF0010240F8042908
:101FFC004FF0123240F804294FF0033240F8042914
:10200C004FF0023240F804294FF0013240F8042915
:10201C0040F804194FF0113140F804194FF0103109
:10202C0040F804194FF0093140F804194FF0083109
:10203C0040F804194FF0073140F804194FF00631FD
:10204C0040F804194FF0053140F804194FF00431F1
:10205C000160704770477047704780B5FFF7F0FA22
:10206C000F490A78521C0A70FFF7EEFAFFF75CFC76
:10207C00BDE80140FFF70DBC10B500F00BFB4FF4B1
:10208C007A71084CB0FBF1F0401E6060206840F0A3
:10209C0005002060206840F00200206010BD0000A8
:1020AC00B825002010E000E0002200F0FBBA01008F
:1020BC0010B51C4C8C212046FFF700FD0020207031
:1020CC003F2104F11C0060603F20A0720020E072F0
:1020DC00207704F13800206204F126000170002101
:1020EC004170817404F13C0004F1540101603F2102
:1020FC0081710021C171017604F17001C16104F19B
:10210C005E003F21017000214170817404F1740064
:10211C0001603F2181710021C1710148046010BD33
:10212C00E8410020403C002010B51A4CB421204658
:10213C00FFF7C4FC201D04F1240101603F21017450
:10214C000021417404F14801416204F138003F213F
:10215C0001700021417004F16C01416104F15C00DB
:10216C003F2101700021417004F19001416104F1A3
:10217C0080003F21017000214170416104F1A400F5
:10218C003F210170002141700148046010BD000026
:10219C00EC4100204C3A002010B50A4C602120463E
:1021AC00FFF78CFC04F11800206004F13000A061F2
:1021BC0004F1480020630020A0640148046010BDB5
:1021CC00F04100203C3F00202DE9F14F84B08B46BC
:1021DC0090469946FFF734FADFF80011097819B1E7
:1021EC00FFF732FA3C203CE0DFF8E4A04D465AF809
:1021FC00251099BB01214AF82510FFF725FA129CEE
:10220C000F9E109F04F00300032804D11FB1B900E6
:10221C003046FFF749FF0498234642465946FFF7DC
:10222C00DDFE0146119802940190009732460E9BF8
:10223C004846FFF793FC040007D1DFF89C000078B8
:10224C00012809D1FFF73FFC06E0FFF7F9F900215F
:10225C004AF82510FFF7F8F9204602E0FFF7F4F9E9
:10226C00282005B0BDE8F08FF8B506461B4800786D
:10227C000D46144608B1122027E0FFF7E1F9FF2EB6
:10228C00074603D11348006890F83260104850F8A4
:10229C002660002E18BF012E04D13846FFF7D4F962
:1022AC00432012E02846FFF744FC102804DB384694
:1022BC00FFF7CAF9412008E0294606F14C00FFF768
:1022CC002AFC3846FFF7C0F900202070F1BD000051
:1022DC00CC3C0020D0250020BD250020B8250020B6
:1022EC0070471C000278C9B28A421AB11CBF10F8A0
:1022FC00012FF9E718BF00207047140000F101030B
:10230C00810704D010F8011B89B18107FAD102684A
:10231C00B2F10131914311F0803F04BF50F8042F0A
:10232C00F6E710F8011B11B110F8011BFBE7C01AFE
:10233C00704702002DE9F04F85B004461E000D4693
:10234C0090461CBF00203060A14601E009F1010954
:10235C0099F80000A0F109010529F7D32028F5D040
:10236C002D2816BF2B2819F8017B2B27B8F1000F4D
:10237C0057D4B8F1010F54D0B8F1250F51DAB8F198
:10238C00010F0DDBB8F1100F04BF99F800003028D5
:10239C0002BF99F8010040F02000782814D10EE01B
:1023AC0099F80000302818BF4FF00A080CD199F8A2
:1023BC00010040F02000782804D14FF0100809F1FA
:1023CC00020901E04FF00808CDF8109001E009F186
:1023DC00010999F800003028F9D00FF2A00B4FF04A
:1023EC00000ACDF80C908DF808B00AE09DF80810A2
:1023FC00CDF804A0401AC0B2009008FB0A0A09F1FB
:10240C00010999F80010A1F141001A2838BF2031B8
:10241C004246584600F060F90028E7D10498484538
:10242C0003D105B12C60002025E00FF27801039850
:10243C0018F80110A9EB0000401A14D4012808DA8E
:10244C000098BAEB000004D30199B0FBF8F0884275
:10245C0009D000F03BF8222101600EB10120306060
:10246C004FF0FF3A03E02D2F08BFCAF1000A0DB15F
:10247C00C5F80090504605B0BDE8F08F30313233CE
:10248C003435363738396162636465666768696A02
:10249C006B6C6D6E6F707172737475767778797A08
:1024AC000000000000002115110E0D0C0B0B0A0A88
:1024BC00090909090908080808080808070707078F
:1024CC000707070707070707070000000148FFF782
:1024DC003BBC0000800100202DE9F843044647482E
:1024EC00474FFFF731FC80464648FFF72DFC054669
:1024FC003846FFF729FC006808B9FFF727FC384677
:10250C00FFF722FC06464048FFF71EFC0746D8F8AA
:10251C0000103868814220D0007878B93068007893
:10252C0010B9FFF729FC30606A4630680321FFF7C9
:10253C0028FC3860017809B1401E3860386800F01A
:10254C000DF9060008BF4FF0FF3054D0286800F09A
:10255C00A5F92E603868C8F8000000216069FFF703
:10256C0075FC8046E169A0682D6801EB410200EB27
:10257C00C207606940F26D1101FB0080401C07210D
:10258C0090FBF1F1C1EBC101401A4FF0000900F1D1
:10259C000E0600E06D1D2878FF282BD06069297984
:1025AC008842F7DBE978FFF751FCA978A0EB08002B
:1025BC000818297871B13218521A072392FBF3F3D9
:1025CC00C3EBC303D21A18BFC2F1070210180829B3
:1025DC00B8BFC01F00EB4001687800EBC100874218
:1025EC0008DB2879697A88420CBF89F001094FF021
:1025FC000009CFE74846BDE8F28300BF8401002004
:10260C004C010020880100205001002080B500F012
:10261C0085F94FF4803000F099F900F0B0F9002002
:10262C0000F0DDF9002000F0E6F94FF4806000F0D6
:10263C00DBF94FF4004000F0E9F9022000F096FAC3
:10264C00102000F09DFA4FF4E0114FF4803000F0B0
:10265C00AFF9012000F0B4F9392000F047FA002856
:10266C00FAD0022000F0AFF900F0B4F90828FBD141
:10267C0000F0BAFA00F0E7FA00F0EAFA00F0E5FB35
:10268C0000F030FC00F052FCBDE8014000F06EBCE4
:10269C0000B500E000B585B0684600F0CDF90198B2
:1026AC0005B000BD00B500BF130096469446103926
:1026BC0028BFA0E80C50FAD85FEA417C28BF0CC0B8
:1026CC0048BF40F8042BC90728BF20F8022B48BF8D
:1026DC0000F8012B00BD0500C9B2830706D0521EBD
:1026EC0022D310F8013B9942F7D11FE0083A13D3DB
:1026FC0002F1040241EA012141EA014150F8043B94
:10270C00121F21BF4B40A3F1013C2CEA030C1CF01F
:10271C00803FF3D0C9B2001F083210F8013B521EA3
:10272C0028BF91EA030FF8D818BF0120401E70474C
:10273C000022491E0CD40378303B0A2B08D202EB42
:10274C00820310F8012B02EB4302303A491EF2D5FA
:10275C00002958BF4FF0FF32104670472DE9F8435F
:10276C00054615F8018BB8F1000F00F09380284650
:10277C00022601E0401C761C4146FFF7B3FD002801
:10278C00F8D106EB860000F011FC060000F0828008
:10279C00002734464FF0FF3900E0641D28782828C4
:1027AC000BD10421681CFFF7C3FFA0F26C77002F3C
:1027BC006DD4687929286AD1AD1D2771022128466C
:1027CC00FFF7B6FF401EE070AD1C28460021012229
:1027DC000378303B0A2B08D201EB810310F8011B64
:1027EC0001EB43013039521EF2D5002A58BF49463D
:1027FC00481EA07015F8021F30390A2916D2294636
:10280C000023012291F800C0ACF1300CBCF10A0F8E
:10281C0008D203EB830C11F8013B03EB4C03303B68
:10282C00521EEFD5002A03D44B4601E0002300E0F2
:10283C00AD1C6370E1780C29BFBFC0B2642860780E
:10284C00642824DA28782B2818BF2D2802D00020E1
:10285C00207010E06878A0F13001072917D23028D9
:10286C000CBF07203038207028782B2802D1207814
:10287C00C01D2070AD1C287828B9FF2060716772CC
:10288C003046BDE8F28315F8010B404585D0304643
:10289C0000F004F80020BDE8F283100000B9704786
:1028AC0038B5A0F108042068082833D310F0070FBE
:1028BC0030D1C046C0461848416809B18C4203D299
:1028CC006160446017E019464B680BB1A342FAD320
:1028DC000B685D18AC421BD3A54204D12268D218F8
:1028EC000A600C4607E04A681AB123681B199A4221
:1028FC000ED362604C60616851B1226813198B422F
:10290C0006D1002303600868801820604868606066
:10291C00C046C04631BD0000DC4100207E487F4AE5
:10292C00016841F0010101604168114041607C4A3D
:10293C00016811400160016821F480210160416847
:10294C0021F4FE01416000218160704772490A68E0
:10295C0022F480320A60B0F5803F0A6822F48022AB
:10296C000A6003D0B0F5802F04D07047086840F49B
:10297C00803002E0086840F4A0200860704710B472
:10298C00002040F2FF11674A634B1C68640C04F092
:10299C00010414705468641C5460147814B954689D
:1029AC008C42F2D11968890348BF012010BC7047D2
:1029BC005D4A136823F47C13184308431060704776
:1029CC005A490860704758490A68920840EA8200E0
:1029DC00086070475448006800F00C00704752497A
:1029EC000A6822F0F00203E04F490A6822F4E06220
:1029FC001043086070474C490A6822F4605242EA5E
:102A0C00C000086070474A490860704746490A6828
:102A1C0022F44042ECE7474900220A7001280A7070
:102A2C0002D0042801D105200870704741490A687A
:102A3C00DEE741490860704710B43B490A6802F070
:102A4C000C02082A0FD10A680B68C2F38342921C4D
:102A5C00DB0358BF394B04D50B689B034CBF374B7A
:102A6C00374B5A4300E0364A02600FF2EC030A6817
:102A7C000468C2F30312D25CD44044600A68446810
:102A8C00C2F30222D25CD44084600A684468C2F368
:102A9C00C222D25C0FF2D003D440C4600968C26871
:102AAC00C1F38131C95CB2FBF1F1016110BC70471B
:102ABC00244A0029116814BF084321EA0000106061
:102ACC007047214A0029116814BF084321EA00000D
:102ADC00106070471D4A0029116814BF084321EA91
:102AEC000000106070471A490860704741090A4A93
:102AFC00012908BF116803D002290CBF116A516A61
:102B0C0000F01F00C14001F001007047114801683E
:102B1C0041F0807101607047001002400000FFF826
:102B2C00FFFFF6FED4410020041002406000424238
:102B3C00D8004242201002403C04424200093D00B1
:102B4C0000127A00181002401C1002400C100240B7
:102B5C004004424224100240000000000102030421
:102B6C0001020304060708090204060807490A685B
:102B7C0002F03802FFE70A600A68104308607047E9
:102B8C0002490A6822F01002F5E70000002002401A
:102B9C0080B501214FF0C050FFF793FF012000F0EA
:102BAC005DFA00F061FA0120FFF735FF4120FFF7D5
:102BBC009DFF0028FAD04FF48070FFF737FF0120FB
:102BCC00FFF737FF00F080FA00F079FA47F6FF7054
:102BDC0000F065FA00F073FA0121012000F056FABA
:102BEC00BDE8014000F06BBA10B5042000F048FAC3
:102BFC004AF2A554A04206D0FFF7CAFF2146042092
:102C0C0000F03BFA13E07B20FFF770FF10B97A203D
:102C1C00FFF76CFFFFF77AFF0120FFF70AFF00F0C8
:102C2C0053FA0121012000F031FA00F048FAFFF7C5
:102C3C006DFF01214FF0C050FFF743FFBDE810407E
:102C4C00012000F00BBA0121012000F01FBA000096
:102C5C0010B586B001214FF48000FFF732FF01213F
:102C6C000920FFF725FF0020ADF804004BF6FF709C
:102C7C00ADF806000020ADF808004FF48060ADF808
:102C8C000A004FF48040ADF80C0001A929482A4CE9
:102C9C000490204600F026FA0121204600F07EFA2E
:102CAC004FF44060ADF8000069461C208DF803001D
:102CBC0003208DF80200214800F0B0FA06B010BDD8
:102CCC00F8B504460D461C4E4FF40031304600F06A
:102CDC0099FA0028F8D10121304600F069FA184F12
:102CEC003946304600F082FA0028F9D000222146FD
:102CFC00304600F073FA134C2146304600F076FA59
:102D0C000028F9D02946304600F066FA0E4C2146D0
:102D1C00304600F06BFA0028F9D00121304600F063
:102D2C0051FA0A4C2146304600F06CFA0028F9D1D1
:102D3C00F1BD0000A086010000580040000C0140CD
:102D4C0001000300820007008400070010000060EF
:102D5C0010B586B00020ADF800004FF48270ADF8CD
:102D6C00020000200190ADF808004FF40070ADF89F
:102D7C000A003020FFE7ADF80C000020ADF80E0083
:102D8C000720ADF810006946524C204600F0CAFAF4
:102D9C0000227121204600F0EBFA0121204600F0C0
:102DAC00DDFA06B010BD38B504464A4D022128465E
:102DBC0000F0EFFA0028F9D02146284600F0E5FA99
:102DCC000121284600F0E5FA0028F9D0284600F049
:102DDC00DEFAC0B232BD10B53E4C0221204600F0E6
:102DEC00D8FA0028F9D0FF21204600F0CEFA0121B4
:102DFC00204600F0CEFA0028F9D0204600F0C7FAA1
:102E0C00C0B210BD10B5344C20780028FDD1334829
:102E1C0004210BE080B50421304810E010B52E4C95
:102E2C0020780028FDD12E484FF4805100F05DFA37
:102E3C000120207010BD80B54FF48051284800F05F
:102E4C0052FA25490020087001BD38B5012128200F
:102E5C00FFF72EFE01214FF48040FFF732FE4FF4B6
:102E6C006040ADF8000003208DF8020018208DF8AA
:102E7C00030069461A4C194D204600F0CFF9042086
:102E8C00ADF80000694603208DF8020010208DF883
:102E9C000300284600F0C2F94FF48050ADF8000052
:102EAC00694603208DF8020010208DF8030020469F
:102EBC0000F0B4F90849002008700421284600F0FD
:102ECC0012FA4FF48051204600F00DFAFFF740FF44
:102EDC0031BD0000003800400E42002000140140BB
:102EEC00000C014010B582B001211120FFF7E0FD6C
:102EFC008020ADF8000010208DF8030003208DF821
:102F0C0002006946084C204600F088F980212046D2
:102F1C0000F0E9F94FF47A7000F042FA8021204673
:102F2C0000F0E3F913BD00BF0010014080B5012192
:102F3C000520FFF7BDFD2220ADF8000069461020EA
:102F4C008DF8030003208DF80200074800F066F9A5
:102F5C0001BD202101E0202102E0034800F0C3B9AB
:102F6C00014800F0C2B900000008014080B5012101
:102F7C001020FFF79DFD4FF40070ADF8000069467E
:102F8C0004208DF80300084800F048F901BD10B585
:102F9C004FF40071044800F09FF90024012808BF89
:102FAC000124204610BD00000010014070B50546FC
:102FBC0005F10F00C408C046C046E400A54232D259
:102FCC00082C04D2082402E00830FFF767FC2248E2
:102FDC00026811000CD1011D0A6802B31368A342E8
:102FEC0038BF111DF8D310E01D68A5420DD2191D74
:102FFC000B68002BF8D11268011D00E0191D0B683D
:10300C0093420CD01D68A542F8D361B10D682A68B3
:10301C00A2F10803A3420AD26A680A600FE000F02A
:10302C0035FA0028D0D1C046C046002070BD6319C7
:10303C000B60121B6E685E600B681A602C6009686E
:10304C0000291DBF4A68002A091D00210160C046E5
:10305C00C04605F1080070BDDC4100200149086044
:10306C007047000020000E4280B50120FFF73BFDA9
:10307C00BDE802400020FFF736BD034A11527047ED
:10308C000149085A70470000006C0040134A00299F
:10309C00118814BF084321EA0000108070471049C2
:1030AC000A8842F010020A80020C02F00F028A8099
:1030BC0008814FF6EF720888104008807047084866
:1030CC0001888906FCD57047054801884FF6F772D0
:1030DC001140018001880907FCD570470028004089
:1030EC000428004070B5044686B0A6880D46684694
:1030FC00FFF7A2FC029927484FF6C072B1FBF0F023
:10310C0032400243A2804FF6FE7322881A4022807E
:10311C00214BEA689A4207D25200B1FBF2F189B214
:10312C00042920DA04211EE06B884BF6FF76B342AB
:10313C0004D102EB4202B1FBF2F105E019235A4330
:10314C00B1FBF2F141F4804189B280B20A054FF42F
:10315C00967208BF41F0010150434FF47A7241F46A
:10316C00004190FBF2F0401C2084A1834FF6F53116
:10317C00208840F0010020802088084029880843DE
:10318C00E98808432080A98828890843208106B053
:10319C0070BD000040420F00A1860100002901888B
:1031AC0012BF41F001014FF6FE72114001807047D1
:1031BC000029018812BF41F480714FF6FF62114063
:1031CC00018070470029018812BF41F400714FF64D
:1031DC00FF5211400180704701827047002A14BFD2
:1031EC0041F0010101F0FE0101827047838A008BDE
:1031FC0043EA004000020022000A884208BF012274
:10320C0010467047838A008B43EA00400022084036
:10321C00000218BF0122104670471F002DE9F04133
:10322C00CC78002204F00F03E40644BF8C782343CF
:10323C000C88E5B225B3D0F800C001250F2605FA9D
:10324C0002F707EA0408B84515D14FEA820E06FAD0
:10325C000EF82CEA080C03FA0EFE4EEA0C0C91F850
:10326C0003E0BEF1280F08BF476191F803E0BEF1FF
:10327C00480F08BF0761521C082AE0D3C0F800C0F1
:10328C00FF2C27DDD0F804C0002201250F2602F107
:10329C00080705FA07F707EA0408B84515D14FEAFD
:1032AC00820E06FA0EF82CEA080C03FA0EFE4EEA11
:1032BC000C0C91F803E0BEF1280F08BF476191F8A0
:1032CC0003E0BEF1480F08BF0761521C082ADED389
:1032DC00C0F804C0BDE8F08180680022084218BF25
:1032EC000122104670470161704741617047002A06
:1032FC0014BF01614161704730B4094B01F0030206
:10330C0021F003019200CC580F259540AC43CC50D2
:10331C009040CC582043C85030BC7047000000008F
:10332C000800014002880B8802F441521A434B8872
:10333C001A438B881A43CB881A430B891A434B893F
:10334C001A438B891A43CB891A4302804FF2FF73BD
:10335C00828B1A408283098A018270470029018876
:10336C0012BF41F040014FF6BF721140018070470F
:10337C0001230909002A03FA01F1828889B214BFDA
:10338C00114322EA01018180704781817047808955
:10339C00704700890022084218BF0122104670476E
:1033AC0070B5044634480078C0B9BCB1FEF748F992
:1033BC003249334B09682E318A79CE79D55CB543C5
:1033CC00D55404D12F4A0D7A1378AB4313700C806B
:1033DC00FEF73AF9BDE87040FEF775BB70BD2DE9FC
:1033EC00F041254C257815B15520BDE8F081C1EB95
:1033FC0001174FF47A754FF46166B90006FB0010A3
:10340C0005FB03F11018B1FBF5F105FB0015A8B293
:10341C00FFF7C6FF5FEA154821D01A4D184E4FF43E
:10342C0000473846FFF7BCFF2078A8B9FEF708F92B
:10343C00124909682E318A7991F807C0935D33EAF5
:10344C000C03935503D12A780B7A9A432A700F8078
:10345C00FEF7FAF8FEF737FBB8F10108E1D10020CE
:10346C00BDE8F08110B5FEF7EBF807490C68FEF7E4
:10347C00EBF8204610BD0000B8250020D025002018
:10348C00C0250020BC250020E02500200749086845
:10349C0008B1002070470648C008C0000860054904
:1034AC00C908C900091A0160704700BF0842002012
:1034BC0097090020901100202DE9F94782B0884629
:1034CC0091461E464FF40070FDF749F95FEA000A79
:1034DC0044D04846FDF790FD04460C2CA8BF0B24A5
:1034EC000D980025002836D0DFF8C40B029900682F
:1034FC0000EB011000900C9A02982B46414600F00C
:10350C0062FB40B302460098806853464146FDF783
:10351C00B2FE00281FD4574600E020370AF5007091
:10352C00874209D2224649463846FDF76DFD0028F0
:10353C00F3D1F87A8006F0D50AF50070874206D2EE
:10354C0026B1202239463046FDF7E2FD09E00D9800
:10355C006D1C8542CFD35046FDF72BF94FF0FF3051
:10356C000CE05046FDF725F9B87EF97E00EB012002
:10357C00397D00EB0140797D00EB016004B0BDE8C2
:10358C00F0872DE9FE4F054688464FF40070FDF795
:10359C00E6F85FEA000974D00198FDF72DFD0646A8
:1035AC000C2EA8BF0B260C9800284FF0000B75D0E2
:1035BC00029A5B464146284600F005FB5FEA000A8A
:1035CC005CD0DFF8EC0A006800EB05174B46B868D6
:1035DC0052464146FDF74FFE00284FD44C4600E0C2
:1035EC002034204609F50071884204D22178002944
:1035FC0018BFE529F4D109F50071884249D2019927
:10360C003246FDF78EFD2020E0724FF0FF3241462E
:10361C002846FDF743FA0546002D35D400202073CB
:10362C006073A073E07320746074A074E074FDF791
:10363C0083FCA075000AE075FDF76AFC20764B460A
:10364C00000A6076A576E81105EB10600012E076B2
:10365C005246E81305EB1040001420754146E8155E
:10366C0005EB102000166075002020776077A0779E
:10367C00E077B868FDF710FE002805D54846FDF741
:10368C0098F84FF0FF300EE04846FDF792F82846C8
:10369C0009E00C980BF1010B834589D34846FDF7E3
:1036AC0088F86FF0010003B0BDE8F08F2DE9FD4FF5
:1036BC008CB08B464FF40070FDF751F800260500D6
:1036CC0000F06C810C985946FDF7BEF805900C99EA
:1036DC00DFF8E00900EB411000EB4B100390408A3F
:1036EC00019010B90398406801900398808902906A
:1036FC000D98FDF781FC08900C28A4BF0B200890B6
:10370C0018980496002800F04681029840190990F8
:10371C000298401E0B90049B0E9A0C98594600F090
:10372C0052FA04004FF0FF3600F0EE80DFF880090B
:10373C000C99006800EB011000902B468068224623
:10374C005946FDF798FD002800F1DE802F4600E079
:10375C0020370998874209D2089A0D993846FDF707
:10376C0053FC0028F4D1F87A0028F1D0099887424C
:10377C0080F00A81E52038702B460020F872224632
:10378C00009880685946FDF787FD002800F1BC8041
:10379C009DF86400A0B1387F797F029A00EB01207C
:1037AC00B97F00EB0140F97F00EB01610398007FCA
:1037BC004243B1FBF2F002FB101119B1401C01E0C5
:1037CC00DFF8F408B97EFA7E01EB02213A7D01EBB9
:1037DC0002417A7D01EB02664FF0FF310028079120
:1037EC0000F0D08006900598012804D106EBD67025
:1037FC0006EB600003E002280CBFB0007000039AD7
:10380C000299528B90FBF1F18F18029A02FB110472
:10381C00079887421AD0009880682B463A4659463A
:10382C00FDF729FD002810D501983A1800988068FA
:10383C002B465946FDF71FFD002865D4009880687B
:10384C002B463A465946FDF727FD0797059960190F
:10385C00012940F0A5800B998C420178884659D1FA
:10386C00F2074CBF01F00F01002101702B460098AC
:10387C0080683A465946FDF70FFD0446019807EB60
:10388C000009009880682B464A465946FDF704FD0E
:10389C00002C58BF002837D4009880687F1C2B461A
:1038AC003A465946FDF7E7FC002810D50098806889
:1038BC002B4609F101025946FDF7DDFC002823D403
:1038CC00009880682B463A465946FDF7E5FC079769
:1038DC00F107287882464CBF002000F0F0002870D9
:1038EC002B46009880683A465946FDF7D5FC0446AD
:1038FC00009880682B4609F101025946FDF7CCFC73
:10390C00002C58BF00282AD52846FCF752FF4FF050
:10391C00FF30A4E0621992F801A0F20704D501F07F
:10392C000F010170002004E000210170407800F0CC
:10393C00F00061192B4648703A4600988068594649
:10394C00FDF7AAFC044601983A18009880682B46AB
:10395C005946FDF7A1FC002C58BF0028D4D4F00721
:10396C0047BF4FEA181000EB0A160AF00F0008EBDD
:10397C00002640F6F87086426DDA0698401E0690D6
:10398C007FF431AF012E06DA04981899401C884256
:10399C000490FFF4C0AE2846FCF70BFF30465EE007
:1039AC00019990F8008007EB01090599022930D1A3
:1039BC0061192B4691F801A089788DF828103A46A8
:1039CC006119C97801F00F060021017000206119FE
:1039DC0048708870C870594600988068FDF75CFC88
:1039EC000446009880682B464A465946FDF754FC1D
:1039FC00002C58BF002887D49DF8281008EB0A200B
:103A0C0000EB014000EB0666DFF8AC068642B4DB47
:103A1C0021E061192B4691F801A0002101700020D2
:103A2C0061193A464870594600988068FDF734FC95
:103A3C000446009880682B464A465946FDF72CFCF4
:103A4C00002C58BF00283FF55FAF08EB0A264FF655
:103A5C00F870864291DB2846FCF7ABFE00200FB0D5
:103A6C00BDE8F08F2DE9F04104460E462E2130467C
:103A7C00FDF7B8FA5FEA000804D13046FDF7BCFA4E
:103A8C0000EB06080025274603E007F8010B6D1C28
:103A9C00761C464508D2082D06DA3078E5280CBF8E
:103AAC000520FDF74FFBF0E7082DC5F1080805DAF6
:103ABC00202241462819FDF78BFD082530782E2849
:103ACC0004D1761C02E0202028556D1C0B2D0ADA3F
:103ADC0030780028F7D0E5280CBF0520FDF732FB25
:103AEC002855761CF1E70020E072BDE8F0812DE945
:103AFC00F84708B45FEA020982B00446884615D13B
:103B0C00DFF8B00500EB441000EB4810418A427F0F
:103B1C000029418B18BF408A05D1436803FB021171
:103B2C008268007F921E00FB02144AE04FF4007082
:103B3C00FCF715FE5FEA000A23D04846FDF75CFA55
:103B4C0005460C2DA8BF0B250C980026002834D058
:103B5C00DFF85C05006800EB04100090029A334615
:103B6C004146204600F02FF840B10246009880688C
:103B7C0053464146FDF77FFB002804D55046FCF721
:103B8C0018FE0020FAE4574600E020370AF50070D2
:103B9C00874209D22A4649463846FDF735FA0028AD
:103BAC00F3D1F87AC006F0D50AF50070874200D23E
:103BBC00D7E40C98761C8642D0D35046FCF7F9FD1E
:103BCC0000242046DAE42DE9F84F80468946164653
:103BDC009A46FCF739FE66B902280AD000200090FC
:103BEC000023002249464046FFF781FF5044BDE8C0
:103BFC00F28FDFF8C00400EB481000EB4914658A23
:103C0C0005B96568277FBAFBF7FB86B9A068618B9D
:103C1C00801E07FB0010617F05FB0100E189490153
:103C2C0000EB5120504407FB1B00BDE8F28F5B46B4
:103C3C00324649464046FDF725F80028E7D1BDE855
:103C4C00F28F38B504460D4602BBDFF8680400EB72
:103C5C00441000EB4510C18982894901B1FBF2F196
:103C6C00009189B982686B4629462046FCF71CFEF8
:103C7C00002810D4DFF83C14009801EB441101EB40
:103C8C004511097F48430090009832BD6B46FCF704
:103C9C000BFE0028EED50020F5E72DE9F04F83460A
:103CAC000F4687B015461E463A213846FDF79AF95D
:103CBC00286038B13846FDF7CCF930602868401CD4
:103CCC00286001E030602F6058463168FCF789FDB0
:103CDC0080B3109F00203860002231685846FFF7EF
:103CEC00B0FF80460DF1040928685C21FDF77AF9D4
:103CFC00002842D000F1010AC5F800A05C21504612
:103D0C00FDF770F9B0B35146441A0C2C14DB0022A9
:103D1C00814253460ED219782E2908BF641E04D056
:103D2C000C2ABCBF02F80910521C5B1C8342F2D354
:103D3C000C2C05DB002021E0224601A8FDF7F1F94F
:103D4C00002004F8090001A904A8FFF78BFECDF8A8
:103D5C0000803B68316804AA5846FFF7C8FE3860FB
:103D6C0030B1024631685846FFF76BFF804601E0E0
:103D7C004FF00008BAF1000FB6D1404607B0BDE8CD
:103D8C00F08F2DE9F24F140094B0054600F07E81BF
:103D9C00E06901903A212846FDF724F9060005D088
:103DAC002846FDF756F98346751C01E04FF0000BD1
:103DBC0001985946FCF715FD002800F06781019821
:103DCC0000225946FFF73DFF4FF0000806460DF163
:103DDC0034095C212846FDF705F9002842D05C2106
:103DEC00471C3846FDF7FEF83D46C8B33946A0EBF4
:103DFC00010ABAF10C0F16DB002281423B4680F01F
:103E0C00458119782E2908BFAAF1010A04D00C2A81
:103E1C00BCBF02F80910521C5B1C8342F1D3BAF1EF
:103E2C000C0F04DB32E152460DA8FDF77AF90020A5
:103E3C000AF809000DA910A8FFF714FE01980096C6
:103E4C00434610AA5946FFF752FE5FEA000806D017
:103E5C00019842465946FFF7F4FE064600E000265C
:103E6C00002FB6D1002E00F011819148D0F80090AF
:103E7C00002000900023E06909EB001040F6B932F5
:103E8C0080685946FDF722FA294602A8FFF7EAFD99
:103E9C0000200C900196CDF8008005ABE06902AAD9
:103EAC005946FFF709FB0746149880A1FDF7C0F8A7
:103EBC0070B9E069002F4CD4012101910096434662
:103ECC0002AA5946FFF7F2FBA8B34FF0FF3032E0DD
:103EDC00002F04F1220561D49DF81F00C00747D5BF
:103EEC00A878002801BFE87800282879002840F03D
:103EFC00C1804FF0FF30C4F800B06760E060C4F8D8
:103F0C0008800020206120849DF83000A0619DF87D
:103F1C00311000EB0120A0619DF8321000EB014044
:103F2C00A0619DF8331000EB0160A061E9780029D5
:103F3C0008BF0020B2E020840223002000904FF440
:103F4C007A72E069216809EB00108068FDF7BEF910
:103F5C0090E0002109EB001000910023806840F6EE
:103F6C00BA325946FDF7B2F94FF0FF3020848DE09C
:103F7C00E87898B9A87888B1687810B128790028C1
:103F8C00B7D00120019000964346E06902AA594639
:103F9C00FFF78CFB00200C904FF0FF37287900289E
:103FAC0065D0002FA5D500964346E06902AA594674
:103FBC00FFF7E7FA0746002F9BD517F1020F59D1EF
:103FCC00E0690090B8F1000F08D10099394800EB76
:103FDC00411000EB4B10C08900284BD100980023F6
:103FEC0042465946FCF760FC020043D400985946FF
:103FFC00FCF754FD00283DD400992E4800EB4110ED
:10400C0000EB4B1A9AF81C0086194FF40070FCF761
:10401C00A6FB07002ED04FF400720021FDF76DF8BF
:10402C009AF81C00A6EB000AB24515D2009853462C
:10403C0042465946FFF7C7FD60B30246009809EBAC
:10404C0000103B4680685946FDF726F9002821D41C
:10405C000AF1010AB245E9D33846FCF7AAFB0096EF
:10406C004346E06902AA5946FFF78BFA0746002F30
:10407C007FF53FAF002000900023E06909EB0010B2
:10408C0040F6BA3280685946FDF720F9002015B089
:10409C00BDE8F08F3846FCF78CFBEBE76061012044
:1040AC00287015B02046BDE8F08F000064656C00E8
:1040BC0028A30008F0400020F8FFFF0F2DE9F04F77
:1040CC00824689B08B4616461D464FF40070FCF7AD
:1040DC0046FB040000F0C6814FF400720021FDF78E
:1040EC000CF8202200216846FDF707F8DDF86880FF
:1040FC008DF81C604FF40070ADF80C00C146B9F19E
:10410C00020F14BF01202020ADF81A00ADF80E509C
:10411C0002208DF81D0020221298ADF81000082105
:10412C001598ADF8120004F12106139800904AF688
:10413C005520ADF81800169801900020ADF8140029
:10414C00022002900120ADF81600E920207000201A
:10415C006070A070E01CFDF73BFABDF80C00E0723B
:10416C00BDF80C00000A20739DF81C006073BDF8AC
:10417C001A00A073BDF81A00000AE0739DF81D0028
:10418C002074BDF80E006074BDF80E00000AA07417
:10419C00BDF81000E074BDF81000000A2075149DE5
:1041AC006575BDF81200A075BDF81200000AE07527
:1041BC0017982076000A60761898A076000AE076A8
:1041CC0019982077010A6177010CA177000EE0772E
:1041DC00009884F820000098000A30700098000CB9
:1041EC0070700098000EB9F1020FB0701DD0002055
:1041FC00F07030717071042104F12700FDF71CFA86
:10420C0020220B2104F12B00FDF7E2F9B8F1000F8D
:10421C0005D108220FF2147104F136004CE008228B
:10422C000FF2147104F1360046E00198F0700C2185
:10423C000198000A30710198000C70710198000E01
:10424C00B071BDF81400F071BDF81400000A3072A2
:10425C0000207072B0720298F0720298000A3073EB
:10426C000298000C70730298000EB073BDF8160023
:10427C00F073BDF81600000A30740620707400202C
:10428C00B07404F13400FDF7D7F90020F077002169
:10429C0004F141000170417004F143000421FDF769
:1042AC00CBF920220B2104F14700FDF791F90822EC
:1042BC000FF2906104F15200FCF733FF04F5F27633
:1042CC005520B0762346AA20F07600225946504657
:1042DC00FCF7E2FF002800F1C280B9F1020F08D10F
:1042EC002346062259465046FCF7D6FF002800F11B
:1042FC00B6804FF4007200212046FCF7FEFE00272A
:10430C0010E0B7FBF0F100FB117050B1BDF81A00D2
:10431C003A18234659465046FCF7BEFF002800F1D8
:10432C009E807F1CBDF8120001990818B7EB400F56
:10433C00E7D32570FF256570A570B8F1000F18BF85
:10434C00E570B9F1020F08D125716571A5710F20C7
:10435C00E07125726572A572E0722346BDF81A20D1
:10436C0059465046FCF798FF002878D4BDF81A003F
:10437C00BDF81210081801990A18234659465046E0
:10438C00FCF78AFF00286AD44FF400720021204603
:10439C00FCF7B3FEBDF80E00C0B140014FEA502847
:1043AC000027B8F1010F2BDBBDF81A00BDF8121075
:1043BC0000EB41003A18234659465046FCF76CFF77
:1043CC0000284CD47F1C4745EEDB19E09DF81C807F
:1043DC000027B8F1010F13DBBDF81A00019900EBAF
:1043EC0041000299891E08FB01003A1823465946E0
:1043FC005046FCF751FF002831D47F1C4745EBDBBE
:10440C00B9F1020F2FD14FF4007200212046FCF7B6
:10441C0074FE52202070607023466120A0705946B3
:10442C004120E0707220307070704120B0706120BB
:10443C00F07035717571B571F57135727572B57243
:10444C00F5720020307670765520B076AA20F07682
:10445C005046BDF81620FCF71FFF002803D5204658
:10446C00FCF7A7F904E02046FCF7A3F9002001E0D3
:10447C004FF0FF3009B0BDE8F08F2DE9F0438846CE
:10448C00B2498DB041F2111542F2222609950A96D5
:10449C0043F233340B9444F244490968CDF830901C
:1044AC0001EB001709A800900023B86840F6AB7226
:1044BC004146FCF70BFF58B90999A94204BF0A9968
:1044CC00B14208D10B99A14204BF0C99494502D1C4
:1044DC004FF0FF3053E00C9DB5F5801F03D8012140
:1044EC000FF2D46204E002210023202608E0401CD5
:1044FC0052F83030AB42FAD302EBC000012683886D
:10450C000FF2DC620020944600E0401C5CF808EBE3
:10451C00AE45FAD302EBC0008288A81B5E0106F2FE
:10452C00FF16A0EB5620D2B21602B61C022908BF09
:10453C0076083018401EB0FBF6F002291ABF06466A
:10454C0000200026B5F5803F3ABFAC4600254FF061
:10455C00000C08910490F820099907910290B6B2CA
:10456C000A99039689B2069101951FFA8CF00B9962
:10457C0089B2059100904146B868FFF79FFD0DB0D8
:10458C00BDE8F0832DE9F74F002A86B000F09E803D
:10459C004FF40070FCF7E3F85FEA000A00F0968035
:1045AC0007990698FCF750F902900699684800EBB9
:1045BC004110079900EB4115688A009008B96868AA
:1045CC000090A8890190288A00B92868698B019A03
:1045DC00401A0099A0EB4100E9894901B1FBF2F1C5
:1045EC00401A297FB0FBF1F0019903900026491E77
:1045FC00B0464FF0FF300027049102E0761C01B961
:10460C007F1C03998E42BFBF698B009A8A18904514
:10461C0080F28980029BB21C012B05D102EBD27275
:10462C0006EB6202921C03E0022B0CBF92005200BC
:10463C00019B92FBF3F303EB01080199804501FB0D
:10464C00132B1DD041480699006800EB0114079903
:10465C00A06853464246FCF70EFE00280FD5009882
:10466C00079908EB0002A0685346FCF704FE0028EB
:10467C0029D40799A06853464246FCF70DFE4046E4
:10468C00029A012A0BEB0A0137D1049A91F8009097
:10469C00934526D12D480699006800EB011408F1CA
:1046AC00010B0799A06853465A46FCF7E4FD002815
:1046BC0013D5009807994044421CA0685346FCF758
:1046CC00DAFD002803D55046FCF773F8D0E60799BD
:1046DC00A06853465A46FCF7DFFD9AF8001058467E
:1046EC0000E04978F20759BF01F00F0109EB0121F5
:1046FC004FEA191202EB011180E7022A0BEB0A02B6
:10470C000978527801EB02217FF478AF0BEB0A02A7
:10471C00927801EB02410BEB0A02D27801EB0261B9
:10472C00090109096AE75046FCF743F80899039810
:10473C000860089847600899287F088108990198B3
:10474C00488109B00020BDE8F08F000028A30008C4
:10475C00F04000202DE9F0438046354889B00068D0
:10476C0000EB08150020009017469946A8680C46E7
:10477C00002340F6B932FCF7A9FD40F6AE008742A3
:10478C005ED10FF2CC160027304650F81C1B494561
:10479C001EBF7F1C50F81C1B494502D07F1C162FD6
:1047AC00F3D3162F80F08C80A8682146FCF74EFDC1
:1047BC00002800F18580C7EBC70006EB8000017E66
:1047CC00089181680791818A0691418A059100219F
:1047DC000491018A0391C17D029141680191818903
:1047EC000091C389827DA8682146FFF767FC81464A
:1047FC00002000900023A8684FF47A722146FCF741
:10480C0065FD002800F184800A4800680128C0F288
:10481C00808009490027094A1268012A04DB0B46EB
:10482C00521E23F8207BFBD12031401E71D0F2E7C1
:10483C0028A300082CA300080841002030A300087E
:10484C0040F61D10874216D1A8682146FCF7FEFCE5
:10485C00002853D421464046FFF70FFE8146002026
:10486C0000900023A8684FF47A722146FCF72EFDC5
:10487C0000284ED54CE0109EB7F57A6F17D1214623
:10488C004046FBF7AEFF012838DB32462146404656
:10489C00FFF778FE8146002000900023A8684FF4B3
:1048AC007A722146FCF712FD002832D530E040F236
:1048BC004C4847451CBF40F25640874221D15EB957
:1048CC00002000900023A86840F6BA322146FCF77D
:1048DC00FDFC4FF0FF3026E0A8682146FCF7B6FC43
:1048EC0000280BD4A868474533464A46214602D1D6
:1048FC00FCF7C1FC0CE0FCF7CFFC09E04FF0FF39F2
:10490C0007E000964B46A8683A462146FCF7DEFCC9
:10491C008146002000900023A86840F6BA32214658
:10492C00FCF7D4FC484609B0BDE8F083464154314D
:10493C003220202000000000464154313620202037
:10494C0000000000464154333220202000000000BB
:10495C00DA0700000000000000000000200040000A
:10496C0001000400040001F800000000E40700004E
:10497C000000000000000000800040000100040066
:10498C00040001F800000000EE0700000000000029
:10499C00000000000001800001000400040001F888
:1049AC0000000000F80700000000000000000000FC
:1049BC000002800002000400040001F80000000066
:1049CC000208000000000000000000000004E000ED
:1049DC0003000400040001F800000000E00B0000DC
:1049EC000000000000000000400BE0000900120075
:1049FC00020001F000000000F203000000000000C3
:104A0C000D000000C307000101000400040008F8B9
:104A1C0000000000FC030000000000000B00000080
:104A2C00950F000102000800040008F800000000C7
:104A3C0006040000000000001B000000251F000100
:104A4C0002000800040010F8000000001004000030
:104A5C000000000019000000673E00010300100078
:104A6C00040010F8000000001A0400000000000010
:104A7C0029000000D77C000103001000040020F87E
:104A8C0000000000240400000000000023000000CF
:104A9C00DDF9000106001000080020F800000000FD
:104AAC002E040000C9F301003700000000000001D3
:104ABC000C002000080020F8000000003804000062
:104ACC00D1E703002F0000000000000120002000AF
:104ADC00100020F801000000DC0F000000000000B6
:104AEC002000000060F400023D002000040004F8E7
:104AFC0001000000E60F0000E0E8010020000000CB
:104B0C00000000027A002000080004F801000000F8
:104B1C00F00F0000E0D203002000000000000002B3
:104B2C00F5002000080004F801000000BA13000092
:104B3C000000000039000000877100020300200013
:104B4C00020020F800000000CE130000D9DB0100A9
:104B5C0027000000000000020C002000080020F8D4
:104B6C0000000000D81300009FC00300610000008B
:104B7C00000000021F002000080020F801000000C7
:104B8C00AC170000000000002000000060F70002DD
:104B9C007C002000040002F801000000B6170000A1
:104BAC0060E8010020000000000000027B002000F3
:104BBC00040004F8010000000001000040000000A7
:104BCC000002000080000000400B0000E00000002C
:104BDC00C9F3010000010000FFFFFFFF000200000D
:104BEC00400B000001000000A87F00000200000044
:104BFC000000040004000000000008000800000091
:104C0C00000010001000000000000001080000006F
:104C1C000000000210000000000000042000000052
:104C2C00FFFFFFFF40000000F0B589B000F0FCFA78
:104C3C00044600F0F7FB302C00F06A81312C00F0B8
:104C4C009881322C00F0B881342C00F0E281542C85
:104C5C0000F09580622C00F0F5806C2C00F0D48074
:104C6C00732C05D0742C30D0772C00F01F8113E2FC
:104C7C00732000F071FB7C2000F06EFBFEF7F2FB62
:104C8C0000F095FB7C2000F067FBDFF8F806046869
:104C9C00200C00F083FBA0B200F080FB7C2000F025
:104CAC005BFB012000F058FB1E2000F055FB7C2024
:104CBC0000F052FB1E216846FDF7F6F9684600F03D
:104CCC003EFA684600F07CFBE6E1742000F044FB01
:104CDC007C2000F041FBDFF8B04621790819491C13
:104CEC00007B2171C9B20A19491C127B217142EA5D
:104CFC000020C9B20B19491C1B7B2171C9B20D19BB
:104D0C00491C2D7B217145EA032151EA004525649C
:104D1C0018BF012D75D005F14C0000F051FB7C2023
:104D2C0000F01AFB95F8320000F016FB7C2000F026
:104D3C0013FB05F12E06B07810B9308800B1F020C5
:104D4C002072207A00F008FB7C2000F005FB05F1B6
:104D5C000C0005F13804006900F029FB7C2000F000
:104D6C00FBFA308800F023FB7C2000F0F5FA606839
:104D7C0000F01DFB7C2000F0EFFA20683BE0542093
:104D8C0000F0EAFA7C2000F0E7FADFF8FC45217924
:104D9C000819491C007B2171C9B20A19491C127BE4
:104DAC00217142EA0020C9B20B19491C1B7B2171ED
:104DBC00C9B20D19491C2D7B217145EA032151EA19
:104DCC000045256418BF012D1BD005F13804E0689F
:104DDC0000F0EDFA7C2000F0BFFAE868800000F0EB
:104DEC00E6FA7C2000F0B8FA206900F0E0FA7C20AA
:104DFC0000F0B2FA286800F0DAFA7C2000F0ACFA85
:104E0C004AE100F04EF947E16C2000F0A5FA7C2055
:104E1C0000F0A2FADFF87455DFF86C4520262F68F5
:104E2C002764002F18BF012F08D0380C00F0B6FAF9
:104E3C00B8B200F0B3FA7C2000F08EFA2D1D761E6D
:104E4C00EDD129E1622000F087FA7C2000F084FA91
:104E5C00DFF8344521790819491C007B2171C9B24E
:104E6C000A19491C127B217142EA0020C9B20B19A4
:104E7C00491C1B7B2171C9B20D19491C2D7B217159
:104E8C0045EA032242EA0045C9B20819067B481CD0
:104E9C00002E207100F0008115F8010B00F05CFA77
:104EAC007C2000F059FA761EF6D1F5E0772000F060
:104EBC0053FADFF8D44421790819491C007B21717D
:104ECC00C9B20A19491C127B217142EA0020C9B2ED
:104EDC000B19491C1B7B2171C9B20D19491C2D7B67
:104EEC00217145EA032242EA0045C9B20819067B42
:104EFC00481C002E207100F0CF8035F8024B200AA0
:104F0C0000F02AFAE0B200F027FA761EF5D1C3E0E1
:104F1C00302000F021FADFF8704421790819491C7F
:104F2C00007B2171C9B20A19491C127B217142EA1A
:104F3C000020C9B20B19491C1B7B2171C9B20D1978
:104F4C00491C2D7B217145EA032141EA004400F004
:104F5C006BF9050000F0A08054F8046B300C00F0E5
:104F6C001DFAB0B26D1E00F019FAEDB2002DF3D19E
:104F7C0092E0312000F0F0F9DFF80C4421790819A7
:104F8C00491C007B2171C9B20A19491C127B217181
:104F9C0042EA0020C9B20B19491C1B7B2171C9B212
:104FAC000D19491C2D7B217145EA032141EA00446E
:104FBC0000F03AF920706FE0322000F0CDF9DFF804
:104FCC00C84321790819491C007B2171C9B20A19FF
:104FDC00491C127B217142EA0020C9B20B19491CF1
:104FEC001B7B2171C9B20D19491C2D7B2171C9B2D2
:104FFC000E19491C367B2171C9B20F19491C3F7B14
:10500C00217145EA032141EA004047EA062101806B
:10501C0042E0342000F0A0F9DFF86C432179081944
:10502C00491C007B2171C9B20A19491C127B2171E0
:10503C0042EA0020C9B20B19491C1B7B2171C9B271
:10504C000D19491C2D7B217145EA0322C9B20E1999
:10505C00491C367B217142EA0040C9B20F19491C28
:10506C003F7B21715FFA81FC0CEB04010CF1010E0A
:10507C00097B84F804E047EA06225FFA8EFE0EEB09
:10508C00040C0EF1010E9CF80CC084F804E04CEA00
:10509C00012141EA02410160BB48C08DC0B209B098
:1050AC00F0BD80B50FF2483000F08AF97C2000F09A
:1050BC0053F9002000F050F97C2000F04DF900204D
:1050CC0000F04AF97C2000F047F9002000F044F988
:1050DC00002000F041F9002000F03EF9002000F023
:1050EC003BF97C2000F038F9002000F035F9002065
:1050FC0000F032F9002000F02FF9002000F02CF91C
:10510C007C2000F029F9002000F026F9002000F0A6
:10511C0023F9002000F020F9002000F01DF97C207C
:10512C0000F01AF9002000F017F9002000F014F933
:10513C00002000F011F9BDE8024000200CE138B568
:10514C000446FDF7A5FA22229149B0FBF1F50FF2C6
:10515C00B021204600F06EFBEDB20A2095FBF0F07A
:10516C0000F13001617600EB8001A5EB410030309D
:10517C00A07631BD10B5844CA16B491CA16321787C
:10518C00052942D8DFE801F0030B0F1C2D34ED2864
:10519C003DD1012020700020E070207110BD8C28C2
:1051AC0033D1022032E0411E89411D28ACBF0122BF
:1051BC00002252EAD17128D1A0706070032025E042
:1051CC00E1781C2903DA0A19491C1073E170A178E3
:1051DC004018A0706078401E6070C0B2B8B904204E
:1051EC0014E0A1784018A070C0B270B905200DE091
:1051FC008D280AD1208D401C20850020E0856086FA
:10520C00E06300F034F800F003F80020207010BDCB
:10521C0080B5FFF709FD30B15B49C21C88864A8511
:10522C00BDE8014007E001BD574801794A1C0271F5
:10523C000818007B704738B5FCF702FA524D04464B
:10524C00E87978B900F01CF8688D401E688580B24A
:10525C000028F7D14F4D2846FDF750F8C1B228462B
:10526C0000F0C6FB2046BDE83240FCF7EDB94648DD
:10527C0000218171C17180214748FCF715BF0000E6
:10528C0010B5414CA079052862D8DFE800F0031571
:10529C001F2B434E608D68B1E06B802802D23D4AD3
:1052AC008C218154401CE0630120E071A07100202E
:1052BC00A08510BDE07110BDE06B802802D2354A8C
:1052CC00ED218154401CE06302202CE0E06B618DE9
:1052DC0080283CBF2F4A8154401CE063617103203D
:1052EC00A07110BDA18D2C480A5CE06B80283CBFDE
:1052FC00284BC254401CE063607910186071481C44
:10530C00A08580B2A18E884225D30420A0710320F1
:10531C00608510BDE06B802802D261791D4A8154F2
:10532C00401CE0630520A07110BDE06B802802D208
:10533C00184A8D218154401C8028E06302D2154A02
:10534C0000218154FFF793FF208E401C208610BD56
:10535C00BDE810408BE710BD0B49CA8D802A13465F
:10536C000EDA5B1CDFF830C010B102F80C0007E05D
:10537C00212002F80C009BB2302003F80C005B1CBF
:10538C00CB857047D0250020E03F0020CC3C00208E
:10539C0040420F00CC3D00204C3D002010B504468F
:1053AC00000AFFF7D9FFE0B2BDE81040D4E710B512
:1053BC000446200CFFF7F2FFA0B2BDE81040EDE769
:1053CC0038B504460025200005D000E06D1C10F80F
:1053DC00011B0029FAD1E8B2FFF7BEFFEDB22DB1E7
:1053EC0014F8010BFFF7B8FF6D1EF9D131BD0000A9
:1053FC00494E56414C4944205441534B2100000026
:10540C00436F6E74726F6C486F6D6520322E303244
:10541C002053544D33322028207878204D487A2060
:10542C002900000010B5412800F07C81442800F0D0
:10543C00DD81452800F01E81482800F0C5804C28ED
:10544C0000F0C281552800F0C881562800F0B481C4
:10545C0061285BD0632800F09180662840F0D881E9
:10546C00FFF77AFF7C20FFF777FFEA4C2078FFF7F5
:10547C0073FF2020FFF770FF6078FFF76DFF7C2033
:10548C00FFF76AFFA078FFF767FF2020FFF764FFA4
:10549C00E078FFF761FF7C20FFF75EFF2079FFF7D4
:1054AC005BFF2020FFF758FF6079FFF755FF7C204A
:1054BC00FFF752FFA079FFF74FFF2020FFF74CFFBB
:1054CC00E079FFF749FF7C20FFF746FF207AFFF7D2
:1054DC0043FF2020FFF740FF607AFFF73DFF7C2061
:1054EC00FFF73AFFA07AFFF737FF2020FFF734FFD2
:1054FC00E07AFFF731FF7C20FFF72EFF207BFFF7D0
:10550C002BFF2020FFF728FF607B7AE1FFF724FFB9
:10551C007C20FFF721FFC04C2078FFF71DFF2020D7
:10552C00FFF71AFF6078FFF717FF2020FFF714FF33
:10553C00A078FFF711FF7C20FFF70EFFE078FFF754
:10554C000BFF2020FFF708FF2079FFF705FF202035
:10555C00FFF702FF6079FFF7FFFE7C20FFF7FCFEF0
:10556C00A079FFF7F9FE2020FFF7F6FEE079FFF7B0
:10557C00F3FE2020FFF7F0FE207A42E1FFF7ECFE6D
:10558C007C20FFF7E9FEA54C2078FFF7E5FE2020F4
:10559C00FFF7E2FE6078FFF7DFFE7C20FFF7DCFE12
:1055AC00A078FFF7D9FE2020FFF7D6FEE078FFF7B2
:1055BC00D3FE7C20FFF7D0FE2079FFF7CDFE202014
:1055CC00FFF7CAFE60791CE1FFF7C6FE7C20FFF7EF
:1055DC00C3FE934C2078FFF7BFFE2020FFF7BCFEE4
:1055EC006078FFF7B9FE7C20FFF7B6FE6079FFF715
:1055FC00B3FE2020FFF7B0FEA079FFF7ADFE7C20B4
:10560C00FFF7AAFEA07AFFF7A7FE2020FFF7A4FE63
:10561C00E07AFFF7A1FE7C20FFF79EFEE07BFFF710
:10562C009BFE2020FFF798FE207CFFF795FE7C2048
:10563C00FFF792FE207DFFF78FFE2020FFF78CFEF8
:10564C00607DFFF789FE7C20FFF786FE607EFFF70A
:10565C0083FE2020FFF780FEA07EFFF77DFE7C20DE
:10566C00FFF77AFEA07FFFF777FE2020FFF774FE8E
:10567C00E07FC6E0FFF770FE7C20FFF76DFE684C04
:10568C00A078FFF769FE2020FFF766FEE078FFF7B1
:10569C0063FE7C20FFF760FEE079FFF75DFE2020C3
:1056AC00FFF75AFE207AFFF757FE7C20FFF754FED7
:1056BC00207BFFF751FE2020FFF74EFE607BFFF7AB
:1056CC004BFE7C20FFF748FE607CFFF745FE202058
:1056DC00FFF742FEA07CFFF73FFE7C20FFF73CFE6D
:1056EC00A07DFFF739FE2020FFF736FEE07DFFF7A7
:1056FC0033FE7C20FFF730FEE07EFFF72DFE2020EE
:10570C00FFF72AFE207FFFF727FE7C20FFF724FE01
:10571C0094F82000FFF720FE2020FFF71DFE94F8E0
:10572C0021006EE0FFF718FE7C20FFF715FE3D4CC4
:10573C002078FFF711FE2020FFF70EFE6078FFF7B0
:10574C000BFE2020FFF708FEA078FFF705FE2020B7
:10575C00FFF702FEE078FFF7FFFD7C20FFF7FCFD72
:10576C006079FFF7F9FD2020FFF7F6FDA079FFF730
:10577C00F3FD2020FFF7F0FDE079FFF7EDFD202091
:10578C00FFF7EAFD207AFFF7E7FD7C20FFF7E4FD49
:10579C00A07AFFF7E1FD2020FFF7DEFDE07AFFF7AE
:1057AC00DBFD2020FFF7D8FD207BFFF7D5FD202067
:1057BC00FFF7D2FD607B24E0FFF7CEFD7C20FFF7E6
:1057CC00CBFD194800781CE0FFF7C6FD7C20FFF7E5
:1057DC00C3FD1648FFF7F4FD15E0FFF7BDFD7C2077
:1057EC00FFF7BAFD1248FFF7EBFD0CE0FFF7B4FD35
:1057FC007C20FFF7B1FD00F0CCFA0B4900200870BB
:10580C000120FFF7A9FDBDE810407C20FFF7A4BDE7
:10581C0010BD00BF70410020B84100203440002072
:10582C007C400020244000203F4000208841002084
:10583C004440002062B38B0708D0521E11F8013B84
:10584C0000F8013B00F024808B07F6D1830740F071
:10585C00208000BF103A07D330B4B1E83810103AAA
:10586C00A0E83810F9D230BC530724BFB1E80810B7
:10587C00A0E8081044BF51F8043B40F8043BD207A1
:10588C0024BF31F8022B20F8022B44BF0B78037095
:10589C007047083A07D3B1E80810083A40F8043BBF
:1058AC0040F804CBF7D25307E4E7010010B582B0FF
:1058BC0000211520FDF70EF901211520FDF7F8F850
:1058CC00894C01224FF400612046FDF710FD4FF486
:1058DC000060ADF80000694604208DF80300032039
:1058EC008DF802002046FDF799FC01224FF48051FF
:1058FC002046FDF7FCFC4FF48050ADF800006946E3
:10590C0014208DF8030003208DF802002046FDF7CB
:10591C0085FC0020FDF777F801214FF40000FDF71E
:10592C00D0F80FF22501142000F0CBFC012114203B
:10593C0000F0D6FC142000F0BDFC00F06FFD6B48AD
:10594C0000214160016013BD80B5FBF779FE684909
:10595C000A78521C0A70FBF777FE00F06FFDBDE869
:10596C000140FBF796BF604A00284FF48051104667
:10597C0018BFFDF7BABCFDF7B6BC30B45D4A5E4942
:10598C0013684B6054688C609268CA60D2184A6085
:10599C002CD00024831C0C700C78150F0A2D34BFEE
:1059AC003035373503F8145000250C7803EB4404DC
:1059BC00120165700C78641C0C70E4B2082CEBD3EB
:1059CC0012308A680D700B78140F0A2C34BF3034E7
:1059DC00373400F8134012010B7800EB43035D7071
:1059EC000B785B1C0B70DBB2042BECD330BC704718
:1059FC0010B50C462246C02100F050FD2146012076
:105A0C0000F01DFE012000F0BFFD012000F0B5FDEF
:105A1C002028FAD110BD394A0023138001B97047F0
:105A2C0030B4374BB3F892500478ED1885F87840C1
:105A3C00B3F89240641CA3F89240A4B2142CA4BFF7
:105A4C000024A3F892401488641C1480401CA4B257
:105A5C008C42E7D330BC704729482A4B00F19001A7
:105A6C004A885A80B1F800C0944501D10020704793
:105A7C00604490F8780018700CF10100088080B236
:105A8C001428A4BF002008800120704770B41C4A61
:105A9C0002F18C035C881D88A54204D100210170A1
:105AAC00002070BC7047AE5C17490E806D1C1D80C9
:105ABC00ADB2782DA4BF00251D801D88A54208BF5E
:105ACC0001220BD0AA5C06EB02220A806A1C1A8007
